{"abi":[{"type":"constructor","inputs":[{"name":"_name","type":"string","internalType":"string"},{"name":"_symbol","type":"string","internalType":"string"},{"name":"_paymentToken","type":"address","internalType":"address"},{"name":"_platformFeePercentage","type":"uint256","internalType":"uint256"},{"name":"_lzEndpoint","type":"address","internalType":"address"},{"name":"_delegate","type":"address","internalType":"address"}],"stateMutability":"nonpayable"},{"type":"function","name":"SEND","inputs":[],"outputs":[{"name":"","type":"uint16","internalType":"uint16"}],"stateMutability":"view"},{"type":"function","name":"SEND_AND_COMPOSE","inputs":[],"outputs":[{"name":"","type":"uint16","internalType":"uint16"}],"stateMutability":"view"},{"type":"function","name":"allowInitializePath","inputs":[{"name":"origin","type":"tuple","internalType":"struct Origin","components":[{"name":"srcEid","type":"uint32","internalType":"uint32"},{"name":"sender","type":"bytes32","internalType":"bytes32"},{"name":"nonce","type":"uint64","internalType":"uint64"}]}],"outputs":[{"name":"","type":"bool","internalType":"bool"}],"stateMutability":"view"},{"type":"function","name":"approvalRequired","inputs":[],"outputs":[{"name":"","type":"bool","internalType":"bool"}],"stateMutability":"pure"},{"type":"function","name":"approve","inputs":[{"name":"to","type":"address","internalType":"address"},{"name":"tokenId","type":"uint256","internalType":"uint256"}],"outputs":[],"stateMutability":"nonpayable"},{"type":"function","name":"balanceOf","inputs":[{"name":"owner","type":"address","internalType":"address"}],"outputs":[{"name":"","type":"uint256","internalType":"uint256"}],"stateMutability":"view"},{"type":"function","name":"combineOptions","inputs":[{"name":"_eid","type":"uint32","internalType":"uint32"},{"name":"_msgType","type":"uint16","internalType":"uint16"},{"name":"_extraOptions","type":"bytes","internalType":"bytes"}],"outputs":[{"name":"","type":"bytes","internalType":"bytes"}],"stateMutability":"view"},{"type":"function","name":"contents","inputs":[{"name":"","type":"uint256","internalType":"uint256"}],"outputs":[{"name":"creator","type":"address","internalType":"address payable"},{"name":"contentHash","type":"string","internalType":"string"},{"name":"price","type":"uint256","internalType":"uint256"},{"name":"royaltyPercentage","type":"uint256","internalType":"uint256"},{"name":"isSubscription","type":"bool","internalType":"bool"},{"name":"subscriptionDuration","type":"uint256","internalType":"uint256"}],"stateMutability":"view"},{"type":"function","name":"endpoint","inputs":[],"outputs":[{"name":"","type":"address","internalType":"contract ILayerZeroEndpointV2"}],"stateMutability":"view"},{"type":"function","name":"enforcedOptions","inputs":[{"name":"eid","type":"uint32","internalType":"uint32"},{"name":"msgType","type":"uint16","internalType":"uint16"}],"outputs":[{"name":"enforcedOption","type":"bytes","internalType":"bytes"}],"stateMutability":"view"},{"type":"function","name":"getApproved","inputs":[{"name":"tokenId","type":"uint256","internalType":"uint256"}],"outputs":[{"name":"","type":"address","internalType":"address"}],"stateMutability":"view"},{"type":"function","name":"getContentDetails","inputs":[{"name":"_tokenId","type":"uint256","internalType":"uint256"}],"outputs":[{"name":"","type":"address","internalType":"address"},{"name":"","type":"string","internalType":"string"},{"name":"","type":"uint256","internalType":"uint256"},{"name":"","type":"uint256","internalType":"uint256"},{"name":"","type":"bool","internalType":"bool"},{"name":"","type":"uint256","internalType":"uint256"}],"stateMutability":"view"},{"type":"function","name":"getCurrentTokenId","inputs":[],"outputs":[{"name":"","type":"uint256","internalType":"uint256"}],"stateMutability":"view"},{"type":"function","name":"hasAccess","inputs":[{"name":"_tokenId","type":"uint256","internalType":"uint256"},{"name":"_user","type":"address","internalType":"address"}],"outputs":[{"name":"","type":"bool","internalType":"bool"}],"stateMutability":"view"},{"type":"function","name":"isApprovedForAll","inputs":[{"name":"owner","type":"address","internalType":"address"},{"name":"operator","type":"address","internalType":"address"}],"outputs":[{"name":"","type":"bool","internalType":"bool"}],"stateMutability":"view"},{"type":"function","name":"isComposeMsgSender","inputs":[{"name":"","type":"tuple","internalType":"struct Origin","components":[{"name":"srcEid","type":"uint32","internalType":"uint32"},{"name":"sender","type":"bytes32","internalType":"bytes32"},{"name":"nonce","type":"uint64","internalType":"uint64"}]},{"name":"","type":"bytes","internalType":"bytes"},{"name":"_sender","type":"address","internalType":"address"}],"outputs":[{"name":"","type":"bool","internalType":"bool"}],"stateMutability":"view"},{"type":"function","name":"isPeer","inputs":[{"name":"_eid","type":"uint32","internalType":"uint32"},{"name":"_peer","type":"bytes32","internalType":"bytes32"}],"outputs":[{"name":"","type":"bool","internalType":"bool"}],"stateMutability":"view"},{"type":"function","name":"lzReceive","inputs":[{"name":"_origin","type":"tuple","internalType":"struct Origin","components":[{"name":"srcEid","type":"uint32","internalType":"uint32"},{"name":"sender","type":"bytes32","internalType":"bytes32"},{"name":"nonce","type":"uint64","internalType":"uint64"}]},{"name":"_guid","type":"bytes32","internalType":"bytes32"},{"name":"_message","type":"bytes","internalType":"bytes"},{"name":"_executor","type":"address","internalType":"address"},{"name":"_extraData","type":"bytes","internalType":"bytes"}],"outputs":[],"stateMutability":"payable"},{"type":"function","name":"lzReceiveAndRevert","inputs":[{"name":"_packets","type":"tuple[]","internalType":"struct InboundPacket[]","components":[{"name":"origin","type":"tuple","internalType":"struct Origin","components":[{"name":"srcEid","type":"uint32","internalType":"uint32"},{"name":"sender","type":"bytes32","internalType":"bytes32"},{"name":"nonce","type":"uint64","internalType":"uint64"}]},{"name":"dstEid","type":"uint32","internalType":"uint32"},{"name":"receiver","type":"address","internalType":"address"},{"name":"guid","type":"bytes32","internalType":"bytes32"},{"name":"value","type":"uint256","internalType":"uint256"},{"name":"executor","type":"address","internalType":"address"},{"name":"message","type":"bytes","internalType":"bytes"},{"name":"extraData","type":"bytes","internalType":"bytes"}]}],"outputs":[],"stateMutability":"payable"},{"type":"function","name":"lzReceiveSimulate","inputs":[{"name":"_origin","type":"tuple","internalType":"struct Origin","components":[{"name":"srcEid","type":"uint32","internalType":"uint32"},{"name":"sender","type":"bytes32","internalType":"bytes32"},{"name":"nonce","type":"uint64","internalType":"uint64"}]},{"name":"_guid","type":"bytes32","internalType":"bytes32"},{"name":"_message","type":"bytes","internalType":"bytes"},{"name":"_executor","type":"address","internalType":"address"},{"name":"_extraData","type":"bytes","internalType":"bytes"}],"outputs":[],"stateMutability":"payable"},{"type":"function","name":"msgInspector","inputs":[],"outputs":[{"name":"","type":"address","internalType":"address"}],"stateMutability":"view"},{"type":"function","name":"name","inputs":[],"outputs":[{"name":"","type":"string","internalType":"string"}],"stateMutability":"view"},{"type":"function","name":"nextNonce","inputs":[{"name":"","type":"uint32","internalType":"uint32"},{"name":"","type":"bytes32","internalType":"bytes32"}],"outputs":[{"name":"nonce","type":"uint64","internalType":"uint64"}],"stateMutability":"view"},{"type":"function","name":"oApp","inputs":[],"outputs":[{"name":"","type":"address","internalType":"address"}],"stateMutability":"view"},{"type":"function","name":"oAppVersion","inputs":[],"outputs":[{"name":"senderVersion","type":"uint64","internalType":"uint64"},{"name":"receiverVersion","type":"uint64","internalType":"uint64"}],"stateMutability":"pure"},{"type":"function","name":"onftVersion","inputs":[],"outputs":[{"name":"interfaceId","type":"bytes4","internalType":"bytes4"},{"name":"version","type":"uint64","internalType":"uint64"}],"stateMutability":"pure"},{"type":"function","name":"owner","inputs":[],"outputs":[{"name":"","type":"address","internalType":"address"}],"stateMutability":"view"},{"type":"function","name":"ownerOf","inputs":[{"name":"tokenId","type":"uint256","internalType":"uint256"}],"outputs":[{"name":"","type":"address","internalType":"address"}],"stateMutability":"view"},{"type":"function","name":"paymentToken","inputs":[],"outputs":[{"name":"","type":"address","internalType":"contract IERC20"}],"stateMutability":"view"},{"type":"function","name":"peers","inputs":[{"name":"eid","type":"uint32","internalType":"uint32"}],"outputs":[{"name":"peer","type":"bytes32","internalType":"bytes32"}],"stateMutability":"view"},{"type":"function","name":"platformFeePercentage","inputs":[],"outputs":[{"name":"","type":"uint256","internalType":"uint256"}],"stateMutability":"view"},{"type":"function","name":"preCrime","inputs":[],"outputs":[{"name":"","type":"address","internalType":"address"}],"stateMutability":"view"},{"type":"function","name":"purchaseContent","inputs":[{"name":"_tokenId","type":"uint256","internalType":"uint256"}],"outputs":[],"stateMutability":"nonpayable"},{"type":"function","name":"quoteSend","inputs":[{"name":"_sendParam","type":"tuple","internalType":"struct SendParam","components":[{"name":"dstEid","type":"uint32","internalType":"uint32"},{"name":"to","type":"bytes32","internalType":"bytes32"},{"name":"tokenId","type":"uint256","internalType":"uint256"},{"name":"extraOptions","type":"bytes","internalType":"bytes"},{"name":"composeMsg","type":"bytes","internalType":"bytes"},{"name":"onftCmd","type":"bytes","internalType":"bytes"}]},{"name":"_payInLzToken","type":"bool","internalType":"bool"}],"outputs":[{"name":"msgFee","type":"tuple","internalType":"struct MessagingFee","components":[{"name":"nativeFee","type":"uint256","internalType":"uint256"},{"name":"lzTokenFee","type":"uint256","internalType":"uint256"}]}],"stateMutability":"view"},{"type":"function","name":"renounceOwnership","inputs":[],"outputs":[],"stateMutability":"nonpayable"},{"type":"function","name":"royaltyInfo","inputs":[{"name":"_tokenId","type":"uint256","internalType":"uint256"},{"name":"_salePrice","type":"uint256","internalType":"uint256"}],"outputs":[{"name":"receiver","type":"address","internalType":"address"},{"name":"royaltyAmount","type":"uint256","internalType":"uint256"}],"stateMutability":"view"},{"type":"function","name":"safeTransferFrom","inputs":[{"name":"from","type":"address","internalType":"address"},{"name":"to","type":"address","internalType":"address"},{"name":"tokenId","type":"uint256","internalType":"uint256"}],"outputs":[],"stateMutability":"nonpayable"},{"type":"function","name":"safeTransferFrom","inputs":[{"name":"from","type":"address","internalType":"address"},{"name":"to","type":"address","internalType":"address"},{"name":"tokenId","type":"uint256","internalType":"uint256"},{"name":"data","type":"bytes","internalType":"bytes"}],"outputs":[],"stateMutability":"nonpayable"},{"type":"function","name":"send","inputs":[{"name":"_sendParam","type":"tuple","internalType":"struct SendParam","components":[{"name":"dstEid","type":"uint32","internalType":"uint32"},{"name":"to","type":"bytes32","internalType":"bytes32"},{"name":"tokenId","type":"uint256","internalType":"uint256"},{"name":"extraOptions","type":"bytes","internalType":"bytes"},{"name":"composeMsg","type":"bytes","internalType":"bytes"},{"name":"onftCmd","type":"bytes","internalType":"bytes"}]},{"name":"_fee","type":"tuple","internalType":"struct MessagingFee","components":[{"name":"nativeFee","type":"uint256","internalType":"uint256"},{"name":"lzTokenFee","type":"uint256","internalType":"uint256"}]},{"name":"_refundAddress","type":"address","internalType":"address"}],"outputs":[{"name":"msgReceipt","type":"tuple","internalType":"struct MessagingReceipt","components":[{"name":"guid","type":"bytes32","internalType":"bytes32"},{"name":"nonce","type":"uint64","internalType":"uint64"},{"name":"fee","type":"tuple","internalType":"struct MessagingFee","components":[{"name":"nativeFee","type":"uint256","internalType":"uint256"},{"name":"lzTokenFee","type":"uint256","internalType":"uint256"}]}]}],"stateMutability":"payable"},{"type":"function","name":"setApprovalForAll","inputs":[{"name":"operator","type":"address","internalType":"address"},{"name":"approved","type":"bool","internalType":"bool"}],"outputs":[],"stateMutability":"nonpayable"},{"type":"function","name":"setBaseURI","inputs":[{"name":"_baseTokenURI","type":"string","internalType":"string"}],"outputs":[],"stateMutability":"nonpayable"},{"type":"function","name":"setDelegate","inputs":[{"name":"_delegate","type":"address","internalType":"address"}],"outputs":[],"stateMutability":"nonpayable"},{"type":"function","name":"setEnforcedOptions","inputs":[{"name":"_enforcedOptions","type":"tuple[]","internalType":"struct EnforcedOptionParam[]","components":[{"name":"eid","type":"uint32","internalType":"uint32"},{"name":"msgType","type":"uint16","internalType":"uint16"},{"name":"options","type":"bytes","internalType":"bytes"}]}],"outputs":[],"stateMutability":"nonpayable"},{"type":"function","name":"setMsgInspector","inputs":[{"name":"_msgInspector","type":"address","internalType":"address"}],"outputs":[],"stateMutability":"nonpayable"},{"type":"function","name":"setPeer","inputs":[{"name":"_eid","type":"uint32","internalType":"uint32"},{"name":"_peer","type":"bytes32","internalType":"bytes32"}],"outputs":[],"stateMutability":"nonpayable"},{"type":"function","name":"setPreCrime","inputs":[{"name":"_preCrime","type":"address","internalType":"address"}],"outputs":[],"stateMutability":"nonpayable"},{"type":"function","name":"subscriptionExpiry","inputs":[{"name":"","type":"uint256","internalType":"uint256"},{"name":"","type":"address","internalType":"address"}],"outputs":[{"name":"","type":"uint256","internalType":"uint256"}],"stateMutability":"view"},{"type":"function","name":"supportsInterface","inputs":[{"name":"interfaceId","type":"bytes4","internalType":"bytes4"}],"outputs":[{"name":"","type":"bool","internalType":"bool"}],"stateMutability":"view"},{"type":"function","name":"symbol","inputs":[],"outputs":[{"name":"","type":"string","internalType":"string"}],"stateMutability":"view"},{"type":"function","name":"token","inputs":[],"outputs":[{"name":"","type":"address","internalType":"address"}],"stateMutability":"view"},{"type":"function","name":"tokenURI","inputs":[{"name":"tokenId","type":"uint256","internalType":"uint256"}],"outputs":[{"name":"","type":"string","internalType":"string"}],"stateMutability":"view"},{"type":"function","name":"transferFrom","inputs":[{"name":"from","type":"address","internalType":"address"},{"name":"to","type":"address","internalType":"address"},{"name":"tokenId","type":"uint256","internalType":"uint256"}],"outputs":[],"stateMutability":"nonpayable"},{"type":"function","name":"transferOwnership","inputs":[{"name":"newOwner","type":"address","internalType":"address"}],"outputs":[],"stateMutability":"nonpayable"},{"type":"function","name":"updateContentPrice","inputs":[{"name":"_tokenId","type":"uint256","internalType":"uint256"},{"name":"_newPrice","type":"uint256","internalType":"uint256"}],"outputs":[],"stateMutability":"nonpayable"},{"type":"function","name":"uploadContent","inputs":[{"name":"_contentHash","type":"string","internalType":"string"},{"name":"_price","type":"uint256","internalType":"uint256"},{"name":"_royaltyPercentage","type":"uint256","internalType":"uint256"},{"name":"_isSubscription","type":"bool","internalType":"bool"},{"name":"_subscriptionDuration","type":"uint256","internalType":"uint256"}],"outputs":[],"stateMutability":"nonpayable"},{"type":"function","name":"withdrawPlatformFees","inputs":[],"outputs":[],"stateMutability":"nonpayable"},{"type":"event","name":"Approval","inputs":[{"name":"owner","type":"address","indexed":true,"internalType":"address"},{"name":"approved","type":"address","indexed":true,"internalType":"address"},{"name":"tokenId","type":"uint256","indexed":true,"internalType":"uint256"}],"anonymous":false},{"type":"event","name":"ApprovalForAll","inputs":[{"name":"owner","type":"address","indexed":true,"internalType":"address"},{"name":"operator","type":"address","indexed":true,"internalType":"address"},{"name":"approved","type":"bool","indexed":false,"internalType":"bool"}],"anonymous":false},{"type":"event","name":"BaseURISet","inputs":[{"name":"baseURI","type":"string","indexed":false,"internalType":"string"}],"anonymous":false},{"type":"event","name":"ContentPurchased","inputs":[{"name":"tokenId","type":"uint256","indexed":true,"internalType":"uint256"},{"name":"buyer","type":"address","indexed":true,"internalType":"address"},{"name":"price","type":"uint256","indexed":false,"internalType":"uint256"}],"anonymous":false},{"type":"event","name":"ContentUploaded","inputs":[{"name":"tokenId","type":"uint256","indexed":true,"internalType":"uint256"},{"name":"creator","type":"address","indexed":true,"internalType":"address"},{"name":"price","type":"uint256","indexed":false,"internalType":"uint256"}],"anonymous":false},{"type":"event","name":"EnforcedOptionSet","inputs":[{"name":"_enforcedOptions","type":"tuple[]","indexed":false,"internalType":"struct EnforcedOptionParam[]","components":[{"name":"eid","type":"uint32","internalType":"uint32"},{"name":"msgType","type":"uint16","internalType":"uint16"},{"name":"options","type":"bytes","internalType":"bytes"}]}],"anonymous":false},{"type":"event","name":"MsgInspectorSet","inputs":[{"name":"inspector","type":"address","indexed":false,"internalType":"address"}],"anonymous":false},{"type":"event","name":"ONFTReceived","inputs":[{"name":"guid","type":"bytes32","indexed":true,"internalType":"bytes32"},{"name":"srcEid","type":"uint32","indexed":false,"internalType":"uint32"},{"name":"toAddress","type":"address","indexed":true,"internalType":"address"},{"name":"tokenId","type":"uint256","indexed":false,"internalType":"uint256"}],"anonymous":false},{"type":"event","name":"ONFTSent","inputs":[{"name":"guid","type":"bytes32","indexed":true,"internalType":"bytes32"},{"name":"dstEid","type":"uint32","indexed":false,"internalType":"uint32"},{"name":"fromAddress","type":"address","indexed":true,"internalType":"address"},{"name":"tokenId","type":"uint256","indexed":false,"internalType":"uint256"}],"anonymous":false},{"type":"event","name":"OwnershipTransferred","inputs":[{"name":"previousOwner","type":"address","indexed":true,"internalType":"address"},{"name":"newOwner","type":"address","indexed":true,"internalType":"address"}],"anonymous":false},{"type":"event","name":"PeerSet","inputs":[{"name":"eid","type":"uint32","indexed":false,"internalType":"uint32"},{"name":"peer","type":"bytes32","indexed":false,"internalType":"bytes32"}],"anonymous":false},{"type":"event","name":"PreCrimeSet","inputs":[{"name":"preCrimeAddress","type":"address","indexed":false,"internalType":"address"}],"anonymous":false},{"type":"event","name":"RoyaltyPaid","inputs":[{"name":"tokenId","type":"uint256","indexed":true,"internalType":"uint256"},{"name":"creator","type":"address","indexed":true,"internalType":"address"},{"name":"amount","type":"uint256","indexed":false,"internalType":"uint256"}],"anonymous":false},{"type":"event","name":"Transfer","inputs":[{"name":"from","type":"address","indexed":true,"internalType":"address"},{"name":"to","type":"address","indexed":true,"internalType":"address"},{"name":"tokenId","type":"uint256","indexed":true,"internalType":"uint256"}],"anonymous":false},{"type":"error","name":"ERC721IncorrectOwner","inputs":[{"name":"sender","type":"address","internalType":"address"},{"name":"tokenId","type":"uint256","internalType":"uint256"},{"name":"owner","type":"address","internalType":"address"}]},{"type":"error","name":"ERC721InsufficientApproval","inputs":[{"name":"operator","type":"address","internalType":"address"},{"name":"tokenId","type":"uint256","internalType":"uint256"}]},{"type":"error","name":"ERC721InvalidApprover","inputs":[{"name":"approver","type":"address","internalType":"address"}]},{"type":"error","name":"ERC721InvalidOperator","inputs":[{"name":"operator","type":"address","internalType":"address"}]},{"type":"error","name":"ERC721InvalidOwner","inputs":[{"name":"owner","type":"address","internalType":"address"}]},{"type":"error","name":"ERC721InvalidReceiver","inputs":[{"name":"receiver","type":"address","internalType":"address"}]},{"type":"error","name":"ERC721InvalidSender","inputs":[{"name":"sender","type":"address","internalType":"address"}]},{"type":"error","name":"ERC721NonexistentToken","inputs":[{"name":"tokenId","type":"uint256","internalType":"uint256"}]},{"type":"error","name":"InvalidDelegate","inputs":[]},{"type":"error","name":"InvalidEndpointCall","inputs":[]},{"type":"error","name":"InvalidOptions","inputs":[{"name":"options","type":"bytes","internalType":"bytes"}]},{"type":"error","name":"InvalidReceiver","inputs":[]},{"type":"error","name":"LzTokenUnavailable","inputs":[]},{"type":"error","name":"NoPeer","inputs":[{"name":"eid","type":"uint32","internalType":"uint32"}]},{"type":"error","name":"NotEnoughNative","inputs":[{"name":"msgValue","type":"uint256","internalType":"uint256"}]},{"type":"error","name":"OnlyEndpoint","inputs":[{"name":"addr","type":"address","internalType":"address"}]},{"type":"error","name":"OnlyNFTOwner","inputs":[{"name":"caller","type":"address","internalType":"address"},{"name":"owner","type":"address","internalType":"address"}]},{"type":"error","name":"OnlyPeer","inputs":[{"name":"eid","type":"uint32","internalType":"uint32"},{"name":"sender","type":"bytes32","internalType":"bytes32"}]},{"type":"error","name":"OnlySelf","inputs":[]},{"type":"error","name":"OwnableInvalidOwner","inputs":[{"name":"owner","type":"address","internalType":"address"}]},{"type":"error","name":"OwnableUnauthorizedAccount","inputs":[{"name":"account","type":"address","internalType":"address"}]},{"type":"error","name":"ReentrancyGuardReentrantCall","inputs":[]},{"type":"error","name":"SafeERC20FailedOperation","inputs":[{"name":"token","type":"address","internalType":"address"}]},{"type":"error","name":"SimulationResult","inputs":[{"name":"result","type":"bytes","internalType":"bytes"}]}],"bytecode":{"object":"0x60a060405234801561001057600080fd5b50604051614bc8380380614bc883398101604081905261002f91610288565b858583838383838381818181806001600160a01b03811661006a57604051631e4fbdf760e01b81526000600482015260240160405180910390fd5b61007381610163565b50600180556001600160a01b0380831660805281166100a557604051632d618d8160e21b815260040160405180910390fd5b60805160405163ca5eb5e160e01b81526001600160a01b0383811660048301529091169063ca5eb5e190602401600060405180830381600087803b1580156100ec57600080fd5b505af1158015610100573d6000803e3d6000fd5b50505050505050505050816006908161011991906103b4565b50600761012682826103b4565b5050601080546001600160a01b0319166001600160a01b039a909a169990991790985550505060119390935550506000600d555061047292505050565b600080546001600160a01b038381166001600160a01b0319831681178455604051919092169283917f8be0079c531659141344cd1fd0a4f28419497f9722a3daafe3b4186f6b6457e09190a35050565b634e487b7160e01b600052604160045260246000fd5b600082601f8301126101da57600080fd5b81516001600160401b038111156101f3576101f36101b3565b604051601f8201601f19908116603f011681016001600160401b0381118282101715610221576102216101b3565b60405281815283820160200185101561023957600080fd5b60005b828110156102585760208186018101518383018201520161023c565b506000918101602001919091529392505050565b80516001600160a01b038116811461028357600080fd5b919050565b60008060008060008060c087890312156102a157600080fd5b86516001600160401b038111156102b757600080fd5b6102c389828a016101c9565b602089015190975090506001600160401b038111156102e157600080fd5b6102ed89828a016101c9565b9550506102fc6040880161026c565b9350606087015192506103116080880161026c565b915061031f60a0880161026c565b90509295509295509295565b600181811c9082168061033f57607f821691505b60208210810361035f57634e487b7160e01b600052602260045260246000fd5b50919050565b601f8211156103af57806000526020600020601f840160051c8101602085101561038c5750805b601f840160051c820191505b818110156103ac5760008155600101610398565b50505b505050565b81516001600160401b038111156103cd576103cd6101b3565b6103e1816103db845461032b565b84610365565b6020601f82116001811461041557600083156103fd5750848201515b600019600385901b1c1916600184901b1784556103ac565b600084815260208120601f198516915b828110156104455787850151825560209485019460019092019101610425565b50848210156104635786840151600019600387901b60f8161c191681555b50505050600190811b01905550565b60805161470a6104be6000396000818161069401528181610be501528181611ade01528181612168015281816124a101528181612be50152818161304201526130fb015261470a6000f3fe60806040526004361061036b5760003560e01c806387a38dbe116101c6578063bd815db0116100f7578063d0b7830b11610095578063e985e9c51161006f578063e985e9c514610a67578063f2fde38b14610a87578063fc0c546a146105e3578063ff7bd03d14610aa757600080fd5b8063d0b7830b14610a12578063d424388514610a27578063e661a13b14610a4757600080fd5b8063ca5eb5e1116100d1578063ca5eb5e1146109a9578063cdd78cfc146109c9578063ced14198146109df578063d045a0dc146109ff57600080fd5b8063bd815db014610949578063c6414e7b1461095c578063c87b56dd1461098957600080fd5b8063b21a33e411610164578063b88d4fde1161013e578063b88d4fde146108bc578063b98bd070146108dc578063bb0b6a53146108fc578063bc70b3541461092957600080fd5b8063b21a33e414610867578063b5ecf9121461087c578063b731ea0a1461089c57600080fd5b80639dc3960b116101a05780639dc3960b146107d95780639f68b9641461080b578063a22cb4651461081f578063a72f5dd81461083f57600080fd5b806387a38dbe146107865780638da5cb5b146107a657806395d89b41146107c457600080fd5b80633400288b116102a05780635e280f111161023e57806370a082311161021857806370a08231146106f6578063715018a6146107165780637d25a05e1461072b57806382413eac1461076657600080fd5b80635e280f11146106825780636352211e146106b65780636fc1b31e146106d657600080fd5b80635535d4611161027a5780635535d461146105f657806355f804b31461061657806356189236146106365780635a0dfe4d1461064b57600080fd5b80633400288b146105a357806342842e0e146105c357806352ae2879146105e357600080fd5b80631f5e13341161030d578063288503ba116102e7578063288503ba146104de57806328f2ac28146105245780632a55205a146105445780633013ce291461058357600080fd5b80631f5e13341461047657806321eb730b1461049e57806323b872dd146104be57600080fd5b8063095ea7b311610349578063095ea7b3146103ff578063111ecdad1461042157806313137d651461044157806317442b701461045457600080fd5b806301ffc9a71461037057806306fdde03146103a5578063081812fc146103c7575b600080fd5b34801561037c57600080fd5b5061039061038b366004613464565b610ac7565b60405190151581526020015b60405180910390f35b3480156103b157600080fd5b506103ba610b19565b60405161039c91906134d1565b3480156103d357600080fd5b506103e76103e23660046134e4565b610bab565b6040516001600160a01b03909116815260200161039c565b34801561040b57600080fd5b5061041f61041a366004613512565b610bd4565b005b34801561042d57600080fd5b506005546103e7906001600160a01b031681565b61041f61044f366004613597565b610be3565b34801561046057600080fd5b506040805160018152600260208201520161039c565b34801561048257600080fd5b5061048b600181565b60405161ffff909116815260200161039c565b6104b16104ac36600461364a565b610ca3565b60405161039c91906136b7565b3480156104ca57600080fd5b5061041f6104d93660046136f2565b610d5c565b3480156104ea57600080fd5b506105166104f9366004613733565b600f60209081526000928352604080842090915290825290205481565b60405190815260200161039c565b34801561053057600080fd5b5061041f61053f3660046134e4565b610de7565b34801561055057600080fd5b5061056461055f366004613763565b61116a565b604080516001600160a01b03909316835260208301919091520161039c565b34801561058f57600080fd5b506010546103e7906001600160a01b031681565b3480156105af57600080fd5b5061041f6105be36600461379e565b6111e5565b3480156105cf57600080fd5b5061041f6105de3660046136f2565b6111f7565b3480156105ef57600080fd5b50306103e7565b34801561060257600080fd5b506103ba6106113660046137cc565b611217565b34801561062257600080fd5b5061041f6106313660046137ff565b6112bc565b34801561064257600080fd5b50600d54610516565b34801561065757600080fd5b5061039061066636600461379e565b63ffffffff919091166000908152600260205260409020541490565b34801561068e57600080fd5b506103e77f000000000000000000000000000000000000000000000000000000000000000081565b3480156106c257600080fd5b506103e76106d13660046134e4565b61130e565b3480156106e257600080fd5b5061041f6106f1366004613840565b611319565b34801561070257600080fd5b50610516610711366004613840565b611376565b34801561072257600080fd5b5061041f6113be565b34801561073757600080fd5b5061074e61074636600461379e565b600092915050565b6040516001600160401b03909116815260200161039c565b34801561077257600080fd5b5061039061078136600461385d565b6113d2565b34801561079257600080fd5b5061041f6107a1366004613763565b6113e7565b3480156107b257600080fd5b506000546001600160a01b03166103e7565b3480156107d057600080fd5b506103ba611496565b3480156107e557600080fd5b506107f96107f43660046134e4565b6114a5565b60405161039c969594939291906138c3565b34801561081757600080fd5b506000610390565b34801561082b57600080fd5b5061041f61083a36600461391a565b6115cc565b34801561084b57600080fd5b50604080516311f0c6d360e11b8152600160208201520161039c565b34801561087357600080fd5b5061048b600281565b34801561088857600080fd5b506107f96108973660046134e4565b6115d7565b3480156108a857600080fd5b506003546103e7906001600160a01b031681565b3480156108c857600080fd5b5061041f6108d7366004613a5d565b6116a5565b3480156108e857600080fd5b5061041f6108f7366004613b0c565b6116bd565b34801561090857600080fd5b50610516610917366004613b41565b60026020526000908152604090205481565b34801561093557600080fd5b506103ba610944366004613b5c565b6116d7565b61041f610957366004613b0c565b61187f565b34801561096857600080fd5b5061097c610977366004613bbc565b611a09565b60405161039c9190613c02565b34801561099557600080fd5b506103ba6109a43660046134e4565b611a4f565b3480156109b557600080fd5b5061041f6109c4366004613840565b611ab7565b3480156109d557600080fd5b5061051660115481565b3480156109eb57600080fd5b506103906109fa366004613733565b611b3d565b61041f610a0d366004613597565b611be4565b348015610a1e57600080fd5b5061041f611c13565b348015610a3357600080fd5b5061041f610a42366004613840565b611d5d565b348015610a5357600080fd5b5061041f610a62366004613c19565b611db3565b348015610a7357600080fd5b50610390610a82366004613c97565b611fba565b348015610a9357600080fd5b5061041f610aa2366004613840565b611fe8565b348015610ab357600080fd5b50610390610ac2366004613cc5565b612023565b60006001600160e01b031982166380ac58cd60e01b1480610af857506001600160e01b03198216635b5e139f60e01b145b80610b1357506301ffc9a760e01b6001600160e01b03198316145b92915050565b606060068054610b2890613ce1565b80601f0160208091040260200160405190810160405280929190818152602001828054610b5490613ce1565b8015610ba15780601f10610b7657610100808354040283529160200191610ba1565b820191906000526020600020905b815481529060010190602001808311610b8457829003601f168201915b5050505050905090565b6000610bb682612059565b506000828152600a60205260409020546001600160a01b0316610b13565b610bdf828233612092565b5050565b7f00000000000000000000000000000000000000000000000000000000000000006001600160a01b03163314610c33576040516391ac5e4f60e01b81523360048201526024015b60405180910390fd5b60208701803590610c4d90610c48908a613b41565b61209f565b14610c8b57610c5f6020880188613b41565b60405163309afaf360e21b815263ffffffff909116600482015260208801356024820152604401610c2a565b610c9a878787878787876120db565b50505050505050565b610cab613407565b610cc6336040860135610cc16020880188613b41565b61223a565b600080610cd28661232f565b9092509050610cfe610ce76020880188613b41565b8383610cf8368a90038a018a613d15565b8861246e565b805190935033907f986156872b2ee0022b9585231dbbfde457f87f8a16b6c45e1a81c54c4ad8351f610d3360208a018a613b41565b6040805163ffffffff9092168252808b013560208301520160405180910390a350509392505050565b6001600160a01b038216610d8657604051633250574960e11b815260006004820152602401610c2a565b6000610d93838333612579565b9050836001600160a01b0316816001600160a01b031614610de1576040516364283d7b60e01b81526001600160a01b0380861660048301526024820184905282166044820152606401610c2a565b50505050565b610def612672565b6000818152600860205260409020546001600160a01b0316610e235760405162461bcd60e51b8152600401610c2a90613d48565b6000818152600e602052604090819020600281015460105492516370a0823160e01b8152336004820152919290916001600160a01b03909116906370a0823190602401602060405180830381865afa158015610e83573d6000803e3d6000fd5b505050506040513d601f19601f82011682018060405250810190610ea79190613d78565b1015610eec5760405162461bcd60e51b8152602060048201526014602482015273496e73756666696369656e742062616c616e636560601b6044820152606401610c2a565b600060646011548360020154610f029190613da7565b610f0c9190613dbe565b90506000818360020154610f209190613de0565b6010546040516323b872dd60e01b8152336004820152306024820152604481018590529192506001600160a01b0316906323b872dd906064016020604051808303816000875af1158015610f78573d6000803e3d6000fd5b505050506040513d601f19601f82011682018060405250810190610f9c9190613df3565b610fe85760405162461bcd60e51b815260206004820152601c60248201527f506c6174666f726d20666565207472616e73666572206661696c6564000000006044820152606401610c2a565b60105483546040516323b872dd60e01b81523360048201526001600160a01b039182166024820152604481018490529116906323b872dd906064016020604051808303816000875af1158015611042573d6000803e3d6000fd5b505050506040513d601f19601f820116820180604052508101906110669190613df3565b6110ab5760405162461bcd60e51b815260206004820152601660248201527510dc99585d1bdc881c185e5b595b9d0819985a5b195960521b6044820152606401610c2a565b600483015460ff16156110e65760058301546110c79042613e10565b6000858152600f60209081526040808320338452909152902055611113565b60006110f18561130e565b90506110fe81338761269c565b61111161110a8661130e565b3387612758565b505b336001600160a01b0316847fc11917d17603adca99ae03c49747f035153321e0f1b1550d66ce71f0c7f4d0cd856002015460405161115391815260200190565b60405180910390a350505061116760018055565b50565b60008281526008602052604081205481906001600160a01b03166111a05760405162461bcd60e51b8152600401610c2a90613d48565b6000848152600e60205260409020805460038201546001600160a01b03909116906064906111ce9087613da7565b6111d89190613dbe565b92509250505b9250929050565b6111ed612808565b610bdf8282612835565b611212838383604051806020016040528060008152506116a5565b505050565b60046020908152600092835260408084209091529082529020805461123b90613ce1565b80601f016020809104026020016040519081016040528092919081815260200182805461126790613ce1565b80156112b45780601f10611289576101008083540402835291602001916112b4565b820191906000526020600020905b81548152906001019060200180831161129757829003601f168201915b505050505081565b6112c4612808565b600c6112d1828483613e6a565b507ff9c7803e94e0d3c02900d8a90893a6d5e90dd04d32a4cfe825520f82bf9f32f6600c6040516113029190613f29565b60405180910390a15050565b6000610b1382612059565b611321612808565b600580546001600160a01b0319166001600160a01b0383169081179091556040519081527ff0be4f1e87349231d80c36b33f9e8639658eeaf474014dee15a3e6a4d4414197906020015b60405180910390a150565b60006001600160a01b0382166113a2576040516322718ad960e21b815260006004820152602401610c2a565b506001600160a01b031660009081526009602052604090205490565b6113c6612808565b6113d06000612883565b565b6001600160a01b03811630145b949350505050565b6000828152600860205260409020546001600160a01b031661141b5760405162461bcd60e51b8152600401610c2a90613d48565b6000828152600e60205260409020546001600160a01b031633146114815760405162461bcd60e51b815260206004820152601d60248201527f4f6e6c792063726561746f722063616e207570646174652070726963650000006044820152606401610c2a565b6000918252600e602052604090912060020155565b606060078054610b2890613ce1565b600060606000806000806114d0876000908152600860205260409020546001600160a01b0316151590565b6114ec5760405162461bcd60e51b8152600401610c2a90613d48565b6000878152600e60205260409020805460028201546003830154600484015460058501546001860180546001600160a01b03909616959094939260ff169190859061153690613ce1565b80601f016020809104026020016040519081016040528092919081815260200182805461156290613ce1565b80156115af5780601f10611584576101008083540402835291602001916115af565b820191906000526020600020905b81548152906001019060200180831161159257829003601f168201915b505050505094509650965096509650965096505091939550919395565b610bdf3383836128d3565b600e60205260009081526040902080546001820180546001600160a01b03909216929161160390613ce1565b80601f016020809104026020016040519081016040528092919081815260200182805461162f90613ce1565b801561167c5780601f106116515761010080835404028352916020019161167c565b820191906000526020600020905b81548152906001019060200180831161165f57829003601f168201915b5050506002840154600385015460048601546005909601549495919490935060ff909116915086565b6116b0848484610d5c565b610de13385858585612972565b6116c5612808565b610bdf6116d28284613fb5565b612a9c565b63ffffffff8416600090815260046020908152604080832061ffff8716845290915281208054606092919061170b90613ce1565b80601f016020809104026020016040519081016040528092919081815260200182805461173790613ce1565b80156117845780601f1061175957610100808354040283529160200191611784565b820191906000526020600020905b81548152906001019060200180831161176757829003601f168201915b5050505050905080516000036117d45783838080601f0160208091040260200160405190810160405280939291908181526020018383808284376000920191909152509294506113df9350505050565b60008390036117e45790506113df565b600283106118625761182b84848080601f016020809104026020016040519081016040528093929190818152602001838380828437600092019190915250612ba392505050565b806118398460028188614092565b60405160200161184b939291906140bc565b6040516020818303038152906040529150506113df565b8383604051639a6d49cd60e01b8152600401610c2a92919061410d565b60005b81811015611988573683838381811061189d5761189d614121565b90506020028101906118af9190614137565b90506118e26118c16020830183613b41565b602083013563ffffffff919091166000908152600260205260409020541490565b6118ec5750611980565b3063d045a0dc60c08301358360a081013561190b610100830183614158565b61191c610100890160e08a01613840565b61192a6101208a018a614158565b6040518963ffffffff1660e01b815260040161194c97969594939291906141b3565b6000604051808303818588803b15801561196557600080fd5b505af1158015611979573d6000803e3d6000fd5b5050505050505b600101611882565b50336001600160a01b0316638e9e70996040518163ffffffff1660e01b8152600401600060405180830381865afa1580156119c7573d6000803e3d6000fd5b505050506040513d6000823e601f3d908101601f191682016040526119ef9190810190614239565b604051638351eea760e01b8152600401610c2a91906134d1565b6040805180820190915260008082526020820152600080611a298561232f565b9092509050611a46611a3e6020870187613b41565b838387612bcf565b95945050505050565b6060611a5a82612059565b506000611a65612ca7565b90506000815111611a855760405180602001604052806000815250611ab0565b80611a8f84612cb6565b604051602001611aa09291906142a6565b6040516020818303038152906040525b9392505050565b611abf612808565b60405163ca5eb5e160e01b81526001600160a01b0382811660048301527f0000000000000000000000000000000000000000000000000000000000000000169063ca5eb5e190602401600060405180830381600087803b158015611b2257600080fd5b505af1158015611b36573d6000803e3d6000fd5b5050505050565b6000828152600860205260408120546001600160a01b0316611b715760405162461bcd60e51b8152600401610c2a90613d48565b6000838152600e60205260409020600481015460ff1615611bb85750506000828152600f602090815260408083206001600160a01b03851684529091529020544210610b13565b826001600160a01b0316611bcb8561130e565b6001600160a01b031614915050610b13565b5092915050565b333014611c045760405163029a949d60e31b815260040160405180910390fd5b610c9a87878787878787610c8b565b611c1b612808565b6010546040516370a0823160e01b81523060048201526000916001600160a01b0316906370a0823190602401602060405180830381865afa158015611c64573d6000803e3d6000fd5b505050506040513d601f19601f82011682018060405250810190611c889190613d78565b6010549091506001600160a01b031663a9059cbb611cae6000546001600160a01b031690565b6040516001600160e01b031960e084901b1681526001600160a01b039091166004820152602481018490526044016020604051808303816000875af1158015611cfb573d6000803e3d6000fd5b505050506040513d601f19601f82011682018060405250810190611d1f9190613df3565b6111675760405162461bcd60e51b815260206004820152600f60248201526e151c985b9cd9995c8819985a5b1959608a1b6044820152606401610c2a565b611d65612808565b600380546001600160a01b0319166001600160a01b0383169081179091556040519081527fd48d879cef83a1c0bdda516f27b13ddb1b3f8bbac1c9e1511bb2a659c24277609060200161136b565b6000855111611e045760405162461bcd60e51b815260206004820152601c60248201527f436f6e74656e7420686173682063616e6e6f7420626520656d707479000000006044820152606401610c2a565b60008411611e545760405162461bcd60e51b815260206004820152601c60248201527f5072696365206d7573742062652067726561746572207468616e2030000000006044820152606401610c2a565b6064831115611eb35760405162461bcd60e51b815260206004820152602560248201527f526f79616c74792070657263656e746167652063616e6e6f7420657863656564604482015264203130302560d81b6064820152608401610c2a565b600d8054906000611ec3836142d5565b9091555050600d54611ed53382612d48565b6040805160c081018252338152602080820189815282840189905260608301889052861515608084015260a083018690526000858152600e909252929020815181546001600160a01b0319166001600160a01b0390911617815591519091906001820190611f4390826142ee565b50604082810151600283015560608301516003830155608083015160048301805460ff191691151591909117905560a09092015160059091015551858152339082907f5c9b887e1b571ed3b9c7d63585f8317aac7a20716c7fbecbf721f5591c9f8aa89060200160405180910390a3505050505050565b6001600160a01b039182166000908152600b6020908152604080832093909416825291909152205460ff1690565b611ff0612808565b6001600160a01b03811661201a57604051631e4fbdf760e01b815260006004820152602401610c2a565b61116781612883565b600060208201803590600290839061203b9086613b41565b63ffffffff1681526020810191909152604001600020541492915050565b6000818152600860205260408120546001600160a01b031680610b1357604051637e27328960e01b815260048101849052602401610c2a565b6112128383836001612d62565b63ffffffff811660009081526002602052604081205480610b135760405163f6ff4fb760e01b815263ffffffff84166004820152602401610c2a565b60006120ed6120ea8787612e68565b90565b905060006120fb8787612e80565b9050612114828261210f60208d018d613b41565b612e90565b60408611156121d857600061214e61213260608c0160408d016143ac565b61213f60208d018d613b41565b6121498b8b612ea5565b612ef0565b604051633e5ac80960e11b81529091506001600160a01b037f00000000000000000000000000000000000000000000000000000000000000001690637cb59012906121a49086908d9060009087906004016143c9565b600060405180830381600087803b1580156121be57600080fd5b505af11580156121d2573d6000803e3d6000fd5b50505050505b6001600160a01b038216887f7883fa30ea56937810e36990b0bbb8d629d0cf59f68baf8431ff657cebe7eef561221160208d018d613b41565b6040805163ffffffff9092168252602082018690520160405180910390a3505050505050505050565b6122443383612f1f565b6122a75760405162461bcd60e51b815260206004820152602e60248201527f4f4e46543732313a2073656e642063616c6c6572206973206e6f74206f776e6560448201526d1c881b9bdc88185c1c1c9bdd995960921b6064820152608401610c2a565b826001600160a01b03166122ba8361130e565b6001600160a01b03161461231b5760405162461bcd60e51b815260206004820152602260248201527f4f4e46543732313a2073656e642066726f6d20696e636f7272656374206f776e60448201526132b960f11b6064820152608401610c2a565b61232683308461269c565b61121282612f76565b606080602083013561235457604051631e4ec46b60e01b815260040160405180910390fd5b60006123aa602085013560408601356123706080880188614158565b8080601f016020809104026020016040519081016040528093929190818152602001838380828437600092019190915250612fb192505050565b90935090506000816123bd5760016123c0565b60025b90506123e06123d26020870187613b41565b826109446060890189614158565b6005549093506001600160a01b031680156124665760405163043a78eb60e01b81526001600160a01b0382169063043a78eb906124239088908890600401614404565b602060405180830381865afa158015612440573d6000803e3d6000fd5b505050506040513d601f19601f820116820180604052508101906124649190613df3565b505b505050915091565b612476613407565b60006124858460000151613016565b60208501519091501561249f5761249f846020015161303e565b7f00000000000000000000000000000000000000000000000000000000000000006001600160a01b0316632637a450826040518060a001604052808b63ffffffff1681526020016124ef8c61209f565b81526020018a815260200189815260200160008960200151111515815250866040518463ffffffff1660e01b815260040161252b929190614429565b60806040518083038185885af1158015612549573d6000803e3d6000fd5b50505050506040513d601f19601f8201168201806040525081019061256e91906144d3565b979650505050505050565b6000828152600860205260408120546001600160a01b03908116908316156125a6576125a6818486613120565b6001600160a01b038116156125e4576125c3600085600080612d62565b6001600160a01b038116600090815260096020526040902080546000190190555b6001600160a01b03851615612613576001600160a01b0385166000908152600960205260409020805460010190555b60008481526008602052604080822080546001600160a01b0319166001600160a01b0389811691821790925591518793918516917fddf252ad1be2c89b69c2b068fc378daa952ba7f163c4a11628f55a4df523b3ef91a4949350505050565b60026001540361269557604051633ee5aeb560e01b815260040160405180910390fd5b6002600155565b6000818152600e602052604090206004015460ff1615611212576000818152600f602090815260408083206001600160a01b038716845290915281205442106126e6576000612714565b6000828152600f602090815260408083206001600160a01b0388168452909152902054612714904290613de0565b90506127208142613e10565b6000928352600f602090815260408085206001600160a01b039687168652909152808420919091559390921681529182209190915550565b6001600160a01b03821661278257604051633250574960e11b815260006004820152602401610c2a565b600061279083836000612579565b90506001600160a01b0381166127bc57604051637e27328960e01b815260048101839052602401610c2a565b836001600160a01b0316816001600160a01b031614610de1576040516364283d7b60e01b81526001600160a01b0380861660048301526024820184905282166044820152606401610c2a565b6000546001600160a01b031633146113d05760405163118cdaa760e01b8152336004820152602401610c2a565b63ffffffff8216600081815260026020908152604091829020849055815192835282018390527f238399d427b947898edb290f5ff0f9109849b1c3ba196a42e35f00c50a54b98b9101611302565b600080546001600160a01b038381166001600160a01b0319831681178455604051919092169283917f8be0079c531659141344cd1fd0a4f28419497f9722a3daafe3b4186f6b6457e09190a35050565b6001600160a01b03821661290557604051630b61174360e31b81526001600160a01b0383166004820152602401610c2a565b6001600160a01b038381166000818152600b6020908152604080832094871680845294825291829020805460ff191686151590811790915591519182527f17307eab39ab6107e8899845ad3d59bd9653f200f220920489ca2b5937696c31910160405180910390a3505050565b6001600160a01b0383163b15611b3657604051630a85bd0160e11b81526001600160a01b0384169063150b7a02906129b490889088908790879060040161451f565b6020604051808303816000875af19250505080156129ef575060408051601f3d908101601f191682019092526129ec91810190614552565b60015b612a58573d808015612a1d576040519150601f19603f3d011682016040523d82523d6000602084013e612a22565b606091505b508051600003612a5057604051633250574960e11b81526001600160a01b0385166004820152602401610c2a565b805181602001fd5b6001600160e01b03198116630a85bd0160e11b14612a9457604051633250574960e11b81526001600160a01b0385166004820152602401610c2a565b505050505050565b60005b8151811015612b7357612ace828281518110612abd57612abd614121565b602002602001015160400151612ba3565b818181518110612ae057612ae0614121565b60200260200101516040015160046000848481518110612b0257612b02614121565b60200260200101516000015163ffffffff1663ffffffff1681526020019081526020016000206000848481518110612b3c57612b3c614121565b60200260200101516020015161ffff1661ffff1681526020019081526020016000209081612b6a91906142ee565b50600101612a9f565b507fbe4864a8e820971c0247f5992e2da559595f7bf076a21cb5928d443d2a13b6748160405161136b919061456f565b600281015161ffff8116600314610bdf5781604051639a6d49cd60e01b8152600401610c2a91906134d1565b60408051808201909152600080825260208201527f00000000000000000000000000000000000000000000000000000000000000006001600160a01b031663ddc28c586040518060a001604052808863ffffffff168152602001612c328961209f565b8152602001878152602001868152602001851515815250306040518363ffffffff1660e01b8152600401612c67929190614429565b6040805180830381865afa158015612c83573d6000803e3d6000fd5b505050506040513d601f19601f82011682018060405250810190611a4691906145ff565b6060600c8054610b2890613ce1565b60606000612cc383613184565b60010190506000816001600160401b03811115612ce257612ce2613948565b6040519080825280601f01601f191660200182016040528015612d0c576020820181803683370190505b5090508181016020015b600019016f181899199a1a9b1b9c1cb0b131b232b360811b600a86061a8153600a8504945084612d1657509392505050565b610bdf82826040518060200160405280600081525061325c565b8080612d7657506001600160a01b03821615155b15612e38576000612d8684612059565b90506001600160a01b03831615801590612db25750826001600160a01b0316816001600160a01b031614155b8015612dc55750612dc38184611fba565b155b15612dee5760405163a9fbf51f60e01b81526001600160a01b0384166004820152602401610c2a565b8115612e365783856001600160a01b0316826001600160a01b03167f8c5be1e5ebec7d5bd14f71427d1e84f3dd0314c0f7b2291e5b200ac8c7c3b92560405160405180910390a45b505b50506000908152600a6020526040902080546001600160a01b0319166001600160a01b0392909216919091179055565b6000612e776020828486614092565b611ab09161461b565b6000612e77604060208486614092565b612e9b30848461269c565b6112128383613274565b6060612eb48260408186614092565b8080601f016020809104026020016040519081016040528093929190818152602001838380828437600092019190915250929695505050505050565b6060838383604051602001612f0793929190614639565b60405160208183030381529060405290509392505050565b600080612f2b8361130e565b9050806001600160a01b0316846001600160a01b03161480612f665750836001600160a01b0316612f5b84610bab565b6001600160a01b0316145b806113df57506113df8185611fba565b6000612f856000836000612579565b90506001600160a01b038116610bdf57604051637e27328960e01b815260048101839052602401610c2a565b8051606090151580612fe557604080516020810187905290810185905260600160405160208183030381529060405261300c565b84843385604051602001612ffc9493929190614683565b6040516020818303038152906040525b9150935093915050565b600081341461303a576040516304fb820960e51b8152346004820152602401610c2a565b5090565b60007f00000000000000000000000000000000000000000000000000000000000000006001600160a01b031663e4fe1d946040518163ffffffff1660e01b8152600401602060405180830381865afa15801561309e573d6000803e3d6000fd5b505050506040513d601f19601f820116820180604052508101906130c291906146b7565b90506001600160a01b0381166130eb576040516329b99a9560e11b815260040160405180910390fd5b610bdf6001600160a01b038216337f0000000000000000000000000000000000000000000000000000000000000000856132d9565b61312b838383613333565b611212576001600160a01b03831661315957604051637e27328960e01b815260048101829052602401610c2a565b60405163177e802f60e01b81526001600160a01b038316600482015260248101829052604401610c2a565b60008072184f03e93ff9f4daa797ed6e38ed64bf6a1f0160401b83106131c35772184f03e93ff9f4daa797ed6e38ed64bf6a1f0160401b830492506040015b6d04ee2d6d415b85acef810000000083106131ef576d04ee2d6d415b85acef8100000000830492506020015b662386f26fc10000831061320d57662386f26fc10000830492506010015b6305f5e1008310613225576305f5e100830492506008015b612710831061323957612710830492506004015b6064831061324b576064830492506002015b600a8310610b135760010192915050565b6132668383613274565b611212336000858585612972565b6001600160a01b03821661329e57604051633250574960e11b815260006004820152602401610c2a565b60006132ac83836000612579565b90506001600160a01b03811615611212576040516339e3563760e11b815260006004820152602401610c2a565b604080516001600160a01b0385811660248301528416604482015260648082018490528251808303909101815260849091019091526020810180516001600160e01b03166323b872dd60e01b179052610de1908590613396565b60006001600160a01b038316158015906113df5750826001600160a01b0316846001600160a01b0316148061336d575061336d8484611fba565b806113df5750506000908152600a60205260409020546001600160a01b03908116911614919050565b600080602060008451602086016000885af1806133b9576040513d6000823e3d81fd5b50506000513d915081156133d15780600114156133de565b6001600160a01b0384163b155b15610de157604051635274afe760e01b81526001600160a01b0385166004820152602401610c2a565b60405180606001604052806000801916815260200160006001600160401b03168152602001613449604051806040016040528060008152602001600081525090565b905290565b6001600160e01b03198116811461116757600080fd5b60006020828403121561347657600080fd5b8135611ab08161344e565b60005b8381101561349c578181015183820152602001613484565b50506000910152565b600081518084526134bd816020860160208601613481565b601f01601f19169290920160200192915050565b602081526000611ab060208301846134a5565b6000602082840312156134f657600080fd5b5035919050565b6001600160a01b038116811461116757600080fd5b6000806040838503121561352557600080fd5b8235613530816134fd565b946020939093013593505050565b60006060828403121561355057600080fd5b50919050565b60008083601f84011261356857600080fd5b5081356001600160401b0381111561357f57600080fd5b6020830191508360208285010111156111de57600080fd5b600080600080600080600060e0888a0312156135b257600080fd5b6135bc898961353e565b96506060880135955060808801356001600160401b038111156135de57600080fd5b6135ea8a828b01613556565b90965094505060a08801356135fe816134fd565b925060c08801356001600160401b0381111561361957600080fd5b6136258a828b01613556565b989b979a50959850939692959293505050565b600060c0828403121561355057600080fd5b6000806000838503608081121561366057600080fd5b84356001600160401b0381111561367657600080fd5b61368287828801613638565b9450506040601f198201121561369757600080fd5b5060208401915060608401356136ac816134fd565b809150509250925092565b6000608082019050825182526001600160401b0360208401511660208301526040830151611bdd604084018280518252602090810151910152565b60008060006060848603121561370757600080fd5b8335613712816134fd565b92506020840135613722816134fd565b929592945050506040919091013590565b6000806040838503121561374657600080fd5b823591506020830135613758816134fd565b809150509250929050565b6000806040838503121561377657600080fd5b50508035926020909101359150565b803563ffffffff8116811461379957600080fd5b919050565b600080604083850312156137b157600080fd5b61353083613785565b803561ffff8116811461379957600080fd5b600080604083850312156137df57600080fd5b6137e883613785565b91506137f6602084016137ba565b90509250929050565b6000806020838503121561381257600080fd5b82356001600160401b0381111561382857600080fd5b61383485828601613556565b90969095509350505050565b60006020828403121561385257600080fd5b8135611ab0816134fd565b60008060008060a0858703121561387357600080fd5b61387d868661353e565b935060608501356001600160401b0381111561389857600080fd5b6138a487828801613556565b90945092505060808501356138b8816134fd565b939692955090935050565b6001600160a01b038716815260c0602082018190526000906138e7908301886134a5565b6040830196909652506060810193909352901515608083015260a09091015292915050565b801515811461116757600080fd5b6000806040838503121561392d57600080fd5b8235613938816134fd565b915060208301356137588161390c565b634e487b7160e01b600052604160045260246000fd5b604080519081016001600160401b038111828210171561398057613980613948565b60405290565b604051606081016001600160401b038111828210171561398057613980613948565b604051601f8201601f191681016001600160401b03811182821017156139d0576139d0613948565b604052919050565b60006001600160401b038211156139f1576139f1613948565b50601f01601f191660200190565b6000613a12613a0d846139d8565b6139a8565b9050828152838383011115613a2657600080fd5b828260208301376000602084830101529392505050565b600082601f830112613a4e57600080fd5b611ab0838335602085016139ff565b60008060008060808587031215613a7357600080fd5b8435613a7e816134fd565b93506020850135613a8e816134fd565b92506040850135915060608501356001600160401b03811115613ab057600080fd5b613abc87828801613a3d565b91505092959194509250565b60008083601f840112613ada57600080fd5b5081356001600160401b03811115613af157600080fd5b6020830191508360208260051b85010111156111de57600080fd5b60008060208385031215613b1f57600080fd5b82356001600160401b03811115613b3557600080fd5b61383485828601613ac8565b600060208284031215613b5357600080fd5b611ab082613785565b60008060008060608587031215613b7257600080fd5b613b7b85613785565b9350613b89602086016137ba565b925060408501356001600160401b03811115613ba457600080fd5b613bb087828801613556565b95989497509550505050565b60008060408385031215613bcf57600080fd5b82356001600160401b03811115613be557600080fd5b613bf185828601613638565b92505060208301356137588161390c565b815181526020808301519082015260408101610b13565b600080600080600060a08688031215613c3157600080fd5b85356001600160401b03811115613c4757600080fd5b8601601f81018813613c5857600080fd5b613c67888235602084016139ff565b95505060208601359350604086013592506060860135613c868161390c565b949793965091946080013592915050565b60008060408385031215613caa57600080fd5b8235613cb5816134fd565b91506020830135613758816134fd565b600060608284031215613cd757600080fd5b611ab0838361353e565b600181811c90821680613cf557607f821691505b60208210810361355057634e487b7160e01b600052602260045260246000fd5b60006040828403128015613d2857600080fd5b50613d3161395e565b823581526020928301359281019290925250919050565b60208082526016908201527510dbdb9d195b9d08191bd95cc81b9bdd08195e1a5cdd60521b604082015260600190565b600060208284031215613d8a57600080fd5b5051919050565b634e487b7160e01b600052601160045260246000fd5b8082028115828204841417610b1357610b13613d91565b600082613ddb57634e487b7160e01b600052601260045260246000fd5b500490565b81810381811115610b1357610b13613d91565b600060208284031215613e0557600080fd5b8151611ab08161390c565b80820180821115610b1357610b13613d91565b601f82111561121257806000526020600020601f840160051c81016020851015613e4a5750805b601f840160051c820191505b81811015611b365760008155600101613e56565b6001600160401b03831115613e8157613e81613948565b613e9583613e8f8354613ce1565b83613e23565b6000601f841160018114613ec95760008515613eb15750838201355b600019600387901b1c1916600186901b178355611b36565b600083815260209020601f19861690835b82811015613efa5786850135825560209485019460019092019101613eda565b5086821015613f175760001960f88860031b161c19848701351681555b505060018560011b0183555050505050565b602081526000808354613f3b81613ce1565b8060208601526001821660008114613f5a5760018114613f7657613faa565b60ff1983166040870152604082151560051b8701019350613faa565b86600052602060002060005b83811015613fa157815488820160400152600190910190602001613f82565b87016040019450505b509195945050505050565b60006001600160401b03831115613fce57613fce613948565b8260051b613fde602082016139a8565b84815290830190602081019036831115613ff757600080fd5b845b838110156140885780356001600160401b0381111561401757600080fd5b8601606036829003121561402a57600080fd5b614032613986565b61403b82613785565b8152614049602083016137ba565b602082015260408201356001600160401b0381111561406757600080fd5b61407336828501613a3d565b60408301525084525060209283019201613ff9565b5095945050505050565b600080858511156140a257600080fd5b838611156140af57600080fd5b5050820193919092039150565b600084516140ce818460208901613481565b8201838582376000930192835250909392505050565b81835281816020850137506000828201602090810191909152601f909101601f19169091010190565b6020815260006113df6020830184866140e4565b634e487b7160e01b600052603260045260246000fd5b6000823561013e1983360301811261414e57600080fd5b9190910192915050565b6000808335601e1984360301811261416f57600080fd5b8301803591506001600160401b0382111561418957600080fd5b6020019150368190038213156111de57600080fd5b6001600160401b038116811461116757600080fd5b63ffffffff6141c189613785565b16815260208881013590820152600060408901356141de8161419e565b6001600160401b03811660408401525087606083015260e0608083015261420960e0830187896140e4565b6001600160a01b03861660a084015282810360c084015261422b8185876140e4565b9a9950505050505050505050565b60006020828403121561424b57600080fd5b81516001600160401b0381111561426157600080fd5b8201601f8101841361427257600080fd5b8051614280613a0d826139d8565b81815285602083850101111561429557600080fd5b611a46826020830160208601613481565b600083516142b8818460208801613481565b8351908301906142cc818360208801613481565b01949350505050565b6000600182016142e7576142e7613d91565b5060010190565b81516001600160401b0381111561430757614307613948565b61431b816143158454613ce1565b84613e23565b6020601f82116001811461434f57600083156143375750848201515b600019600385901b1c1916600184901b178455611b36565b600084815260208120601f198516915b8281101561437f578785015182556020948501946001909201910161435f565b508482101561439d5786840151600019600387901b60f8161c191681555b50505050600190811b01905550565b6000602082840312156143be57600080fd5b8135611ab08161419e565b60018060a01b038516815283602082015261ffff831660408201526080606082015260006143fa60808301846134a5565b9695505050505050565b60408152600061441760408301856134a5565b8281036020840152611a4681856134a5565b6040815263ffffffff8351166040820152602083015160608201526000604084015160a0608084015261445f60e08401826134a5565b90506060850151603f198483030160a085015261447c82826134a5565b60809690960151151560c08501525050506001600160a01b039190911660209091015290565b6000604082840312156144b457600080fd5b6144bc61395e565b825181526020928301519281019290925250919050565b600060808284031280156144e657600080fd5b506144ef613986565b8251815260208301516145018161419e565b602082015261451384604085016144a2565b60408201529392505050565b6001600160a01b03858116825284166020820152604081018390526080606082018190526000906143fa908301846134a5565b60006020828403121561456457600080fd5b8151611ab08161344e565b6000602082016020835280845180835260408501915060408160051b86010192506020860160005b828110156145f357603f19878603018452815163ffffffff815116865261ffff602082015116602087015260408101519050606060408701526145dd60608701826134a5565b9550506020938401939190910190600101614597565b50929695505050505050565b60006040828403121561461157600080fd5b611ab083836144a2565b80356020831015610b1357600019602084900360031b1b1692915050565b60c084901b6001600160c01b031916815260e083901b6001600160e01b0319166008820152815160009061467481600c850160208701613481565b91909101600c01949350505050565b848152836020820152826040820152600082516146a7816060850160208701613481565b9190910160600195945050505050565b6000602082840312156146c957600080fd5b8151611ab0816134fd56fea2646970667358221220fa171246818b5635f1628016de483ffb2b5869071c8e640875b3751612137f4364736f6c634300081a0033","linkReferences":{}},"methodIdentifiers":{"SEND()":"1f5e1334","SEND_AND_COMPOSE()":"b21a33e4","allowInitializePath((uint32,bytes32,uint64))":"ff7bd03d","approvalRequired()":"9f68b964","approve(address,uint256)":"095ea7b3","balanceOf(address)":"70a08231","combineOptions(uint32,uint16,bytes)":"bc70b354","contents(uint256)":"b5ecf912","endpoint()":"5e280f11","enforcedOptions(uint32,uint16)":"5535d461","getApproved(uint256)":"081812fc","getContentDetails(uint256)":"9dc3960b","getCurrentTokenId()":"56189236","hasAccess(uint256,address)":"ced14198","isApprovedForAll(address,address)":"e985e9c5","isComposeMsgSender((uint32,bytes32,uint64),bytes,address)":"82413eac","isPeer(uint32,bytes32)":"5a0dfe4d","lzReceive((uint32,bytes32,uint64),bytes32,bytes,address,bytes)":"13137d65","lzReceiveAndRevert(((uint32,bytes32,uint64),uint32,address,bytes32,uint256,address,bytes,bytes)[])":"bd815db0","lzReceiveSimulate((uint32,bytes32,uint64),bytes32,bytes,address,bytes)":"d045a0dc","msgInspector()":"111ecdad","name()":"06fdde03","nextNonce(uint32,bytes32)":"7d25a05e","oApp()":"52ae2879","oAppVersion()":"17442b70","onftVersion()":"a72f5dd8","owner()":"8da5cb5b","ownerOf(uint256)":"6352211e","paymentToken()":"3013ce29","peers(uint32)":"bb0b6a53","platformFeePercentage()":"cdd78cfc","preCrime()":"b731ea0a","purchaseContent(uint256)":"28f2ac28","quoteSend((uint32,bytes32,uint256,bytes,bytes,bytes),bool)":"c6414e7b","renounceOwnership()":"715018a6","royaltyInfo(uint256,uint256)":"2a55205a","safeTransferFrom(address,address,uint256)":"42842e0e","safeTransferFrom(address,address,uint256,bytes)":"b88d4fde","send((uint32,bytes32,uint256,bytes,bytes,bytes),(uint256,uint256),address)":"21eb730b","setApprovalForAll(address,bool)":"a22cb465","setBaseURI(string)":"55f804b3","setDelegate(address)":"ca5eb5e1","setEnforcedOptions((uint32,uint16,bytes)[])":"b98bd070","setMsgInspector(address)":"6fc1b31e","setPeer(uint32,bytes32)":"3400288b","setPreCrime(address)":"d4243885","subscriptionExpiry(uint256,address)":"288503ba","supportsInterface(bytes4)":"01ffc9a7","symbol()":"95d89b41","token()":"fc0c546a","tokenURI(uint256)":"c87b56dd","transferFrom(address,address,uint256)":"23b872dd","transferOwnership(address)":"f2fde38b","updateContentPrice(uint256,uint256)":"87a38dbe","uploadContent(string,uint256,uint256,bool,uint256)":"e661a13b","withdrawPlatformFees()":"d0b7830b"},"id":76}